:100000000A128A11FC2F00308A000408840A820731
:1000100000343F3406345B344F3466346D347D3401
:0600200007347F346F3449
:100ED600831603138601FA017A08013E84000A127A
:100EE6008A1103200A128A11831203138600013025
:100EF600F7007708FA070A30F0000030F1007A08A8
:100F0600F700F8017708F2007808F3000A128A1150
:100F1600A3270A128A117008F9007908FA00063028
:100F2600F9001330F800AD30F700F70B982FF80BE7
:100F3600982FF90B982F9F2F6F2F0A128A110028CE
:100F4600F601F31FA72FA82FAF2FF209F309F20A14
:100F56000319F30AF601F60AF11FB22FB32FB82FC1
:100F6600F009F109F00A0319F10A7008710403196E
:100F7600BD2FBE2FED2FF501F50ACC2F0130031042
:100F8600F00DF10DFF3E031DC22F0130F400740871
:100F9600F507F11FCF2FD02FC12F71087302031D44
:100FA600D62F70087202031CD92FDA2FE02F700893
:100FB600F2027108031CF303F30201300310F10C73
:100FC600F00CFF3E031DE12F0130F502031DEC2F4F
:100FD600ED2FD02F76080319F12FF22FF72FF209F4
:100FE600F309F20A0319F30A7308F1007208F00014
:0A0FF600080083010A128A116B2F14
:08400000FF3FFF3FFF3FFF3FC0
:02400E00713F00
:00000001FF
